{
  "_format": "hh-sol-artifact-1",
  "contractName": "Mintel",
  "sourceName": "contracts/Mintel.sol",
  "abi": [
    {
      "inputs": [
        {
          "internalType": "string",
          "name": "_name",
          "type": "string"
        },
        {
          "internalType": "string",
          "name": "_symbol",
          "type": "string"
        },
        {
          "internalType": "string",
          "name": "_initBaseURI",
          "type": "string"
        },
        {
          "internalType": "string",
          "name": "_initNotRevealedUri",
          "type": "string"
        }
      ],
      "stateMutability": "nonpayable",
      "type": "constructor"
    },
    {
      "anonymous": false,
      "inputs": [
        {
          "indexed": true,
          "internalType": "address",
          "name": "owner",
          "type": "address"
        },
        {
          "indexed": true,
          "internalType": "address",
          "name": "approved",
          "type": "address"
        },
        {
          "indexed": true,
          "internalType": "uint256",
          "name": "tokenId",
          "type": "uint256"
        }
      ],
      "name": "Approval",
      "type": "event"
    },
    {
      "anonymous": false,
      "inputs": [
        {
          "indexed": true,
          "internalType": "address",
          "name": "owner",
          "type": "address"
        },
        {
          "indexed": true,
          "internalType": "address",
          "name": "operator",
          "type": "address"
        },
        {
          "indexed": false,
          "internalType": "bool",
          "name": "approved",
          "type": "bool"
        }
      ],
      "name": "ApprovalForAll",
      "type": "event"
    },
    {
      "anonymous": false,
      "inputs": [
        {
          "indexed": true,
          "internalType": "address",
          "name": "previousOwner",
          "type": "address"
        },
        {
          "indexed": true,
          "internalType": "address",
          "name": "newOwner",
          "type": "address"
        }
      ],
      "name": "OwnershipTransferred",
      "type": "event"
    },
    {
      "anonymous": false,
      "inputs": [
        {
          "indexed": true,
          "internalType": "address",
          "name": "from",
          "type": "address"
        },
        {
          "indexed": true,
          "internalType": "address",
          "name": "to",
          "type": "address"
        },
        {
          "indexed": true,
          "internalType": "uint256",
          "name": "tokenId",
          "type": "uint256"
        }
      ],
      "name": "Transfer",
      "type": "event"
    },
    {
      "inputs": [
        {
          "internalType": "address",
          "name": "to",
          "type": "address"
        },
        {
          "internalType": "uint256",
          "name": "tokenId",
          "type": "uint256"
        }
      ],
      "name": "approve",
      "outputs": [],
      "stateMutability": "nonpayable",
      "type": "function"
    },
    {
      "inputs": [
        {
          "internalType": "address",
          "name": "owner",
          "type": "address"
        }
      ],
      "name": "balanceOf",
      "outputs": [
        {
          "internalType": "uint256",
          "name": "",
          "type": "uint256"
        }
      ],
      "stateMutability": "view",
      "type": "function"
    },
    {
      "inputs": [],
      "name": "baseExtension",
      "outputs": [
        {
          "internalType": "string",
          "name": "",
          "type": "string"
        }
      ],
      "stateMutability": "view",
      "type": "function"
    },
    {
      "inputs": [],
      "name": "baseURI",
      "outputs": [
        {
          "internalType": "string",
          "name": "",
          "type": "string"
        }
      ],
      "stateMutability": "view",
      "type": "function"
    },
    {
      "inputs": [],
      "name": "cost",
      "outputs": [
        {
          "internalType": "uint256",
          "name": "",
          "type": "uint256"
        }
      ],
      "stateMutability": "view",
      "type": "function"
    },
    {
      "inputs": [
        {
          "internalType": "uint256",
          "name": "tokenId",
          "type": "uint256"
        }
      ],
      "name": "getApproved",
      "outputs": [
        {
          "internalType": "address",
          "name": "",
          "type": "address"
        }
      ],
      "stateMutability": "view",
      "type": "function"
    },
    {
      "inputs": [
        {
          "internalType": "address",
          "name": "owner",
          "type": "address"
        },
        {
          "internalType": "address",
          "name": "operator",
          "type": "address"
        }
      ],
      "name": "isApprovedForAll",
      "outputs": [
        {
          "internalType": "bool",
          "name": "",
          "type": "bool"
        }
      ],
      "stateMutability": "view",
      "type": "function"
    },
    {
      "inputs": [],
      "name": "maxMintAmount",
      "outputs": [
        {
          "internalType": "uint256",
          "name": "",
          "type": "uint256"
        }
      ],
      "stateMutability": "view",
      "type": "function"
    },
    {
      "inputs": [],
      "name": "maxSupply",
      "outputs": [
        {
          "internalType": "uint256",
          "name": "",
          "type": "uint256"
        }
      ],
      "stateMutability": "view",
      "type": "function"
    },
    {
      "inputs": [
        {
          "internalType": "uint256",
          "name": "_mintAmount",
          "type": "uint256"
        }
      ],
      "name": "mint",
      "outputs": [],
      "stateMutability": "payable",
      "type": "function"
    },
    {
      "inputs": [],
      "name": "name",
      "outputs": [
        {
          "internalType": "string",
          "name": "",
          "type": "string"
        }
      ],
      "stateMutability": "view",
      "type": "function"
    },
    {
      "inputs": [],
      "name": "nftPerAddressLimit",
      "outputs": [
        {
          "internalType": "uint256",
          "name": "",
          "type": "uint256"
        }
      ],
      "stateMutability": "view",
      "type": "function"
    },
    {
      "inputs": [],
      "name": "notRevealedUri",
      "outputs": [
        {
          "internalType": "string",
          "name": "",
          "type": "string"
        }
      ],
      "stateMutability": "view",
      "type": "function"
    },
    {
      "inputs": [],
      "name": "owner",
      "outputs": [
        {
          "internalType": "address",
          "name": "",
          "type": "address"
        }
      ],
      "stateMutability": "view",
      "type": "function"
    },
    {
      "inputs": [
        {
          "internalType": "uint256",
          "name": "tokenId",
          "type": "uint256"
        }
      ],
      "name": "ownerOf",
      "outputs": [
        {
          "internalType": "address",
          "name": "",
          "type": "address"
        }
      ],
      "stateMutability": "view",
      "type": "function"
    },
    {
      "inputs": [],
      "name": "renounceOwnership",
      "outputs": [],
      "stateMutability": "nonpayable",
      "type": "function"
    },
    {
      "inputs": [],
      "name": "reveal",
      "outputs": [],
      "stateMutability": "nonpayable",
      "type": "function"
    },
    {
      "inputs": [],
      "name": "revealed",
      "outputs": [
        {
          "internalType": "bool",
          "name": "",
          "type": "bool"
        }
      ],
      "stateMutability": "view",
      "type": "function"
    },
    {
      "inputs": [
        {
          "internalType": "address",
          "name": "from",
          "type": "address"
        },
        {
          "internalType": "address",
          "name": "to",
          "type": "address"
        },
        {
          "internalType": "uint256",
          "name": "tokenId",
          "type": "uint256"
        }
      ],
      "name": "safeTransferFrom",
      "outputs": [],
      "stateMutability": "nonpayable",
      "type": "function"
    },
    {
      "inputs": [
        {
          "internalType": "address",
          "name": "from",
          "type": "address"
        },
        {
          "internalType": "address",
          "name": "to",
          "type": "address"
        },
        {
          "internalType": "uint256",
          "name": "tokenId",
          "type": "uint256"
        },
        {
          "internalType": "bytes",
          "name": "data",
          "type": "bytes"
        }
      ],
      "name": "safeTransferFrom",
      "outputs": [],
      "stateMutability": "nonpayable",
      "type": "function"
    },
    {
      "inputs": [
        {
          "internalType": "address",
          "name": "operator",
          "type": "address"
        },
        {
          "internalType": "bool",
          "name": "approved",
          "type": "bool"
        }
      ],
      "name": "setApprovalForAll",
      "outputs": [],
      "stateMutability": "nonpayable",
      "type": "function"
    },
    {
      "inputs": [
        {
          "internalType": "string",
          "name": "_newBaseExtension",
          "type": "string"
        }
      ],
      "name": "setBaseExtension",
      "outputs": [],
      "stateMutability": "nonpayable",
      "type": "function"
    },
    {
      "inputs": [
        {
          "internalType": "string",
          "name": "_newBaseURI",
          "type": "string"
        }
      ],
      "name": "setBaseURI",
      "outputs": [],
      "stateMutability": "nonpayable",
      "type": "function"
    },
    {
      "inputs": [
        {
          "internalType": "uint256",
          "name": "_newCost",
          "type": "uint256"
        }
      ],
      "name": "setCost",
      "outputs": [],
      "stateMutability": "nonpayable",
      "type": "function"
    },
    {
      "inputs": [
        {
          "internalType": "uint256",
          "name": "_limit",
          "type": "uint256"
        }
      ],
      "name": "setNftPerAddressLimit",
      "outputs": [],
      "stateMutability": "nonpayable",
      "type": "function"
    },
    {
      "inputs": [
        {
          "internalType": "string",
          "name": "_notRevealedURI",
          "type": "string"
        }
      ],
      "name": "setNotRevealedURI",
      "outputs": [],
      "stateMutability": "nonpayable",
      "type": "function"
    },
    {
      "inputs": [
        {
          "internalType": "uint256",
          "name": "_maxSupply",
          "type": "uint256"
        }
      ],
      "name": "setTotalSupply",
      "outputs": [],
      "stateMutability": "nonpayable",
      "type": "function"
    },
    {
      "inputs": [
        {
          "internalType": "uint256",
          "name": "_newmaxMintAmount",
          "type": "uint256"
        }
      ],
      "name": "setmaxMintAmount",
      "outputs": [],
      "stateMutability": "nonpayable",
      "type": "function"
    },
    {
      "inputs": [
        {
          "internalType": "bytes4",
          "name": "interfaceId",
          "type": "bytes4"
        }
      ],
      "name": "supportsInterface",
      "outputs": [
        {
          "internalType": "bool",
          "name": "",
          "type": "bool"
        }
      ],
      "stateMutability": "view",
      "type": "function"
    },
    {
      "inputs": [],
      "name": "symbol",
      "outputs": [
        {
          "internalType": "string",
          "name": "",
          "type": "string"
        }
      ],
      "stateMutability": "view",
      "type": "function"
    },
    {
      "inputs": [
        {
          "internalType": "uint256",
          "name": "index",
          "type": "uint256"
        }
      ],
      "name": "tokenByIndex",
      "outputs": [
        {
          "internalType": "uint256",
          "name": "",
          "type": "uint256"
        }
      ],
      "stateMutability": "view",
      "type": "function"
    },
    {
      "inputs": [
        {
          "internalType": "address",
          "name": "owner",
          "type": "address"
        },
        {
          "internalType": "uint256",
          "name": "index",
          "type": "uint256"
        }
      ],
      "name": "tokenOfOwnerByIndex",
      "outputs": [
        {
          "internalType": "uint256",
          "name": "",
          "type": "uint256"
        }
      ],
      "stateMutability": "view",
      "type": "function"
    },
    {
      "inputs": [
        {
          "internalType": "uint256",
          "name": "tokenId",
          "type": "uint256"
        }
      ],
      "name": "tokenURI",
      "outputs": [
        {
          "internalType": "string",
          "name": "",
          "type": "string"
        }
      ],
      "stateMutability": "view",
      "type": "function"
    },
    {
      "inputs": [],
      "name": "totalSupply",
      "outputs": [
        {
          "internalType": "uint256",
          "name": "",
          "type": "uint256"
        }
      ],
      "stateMutability": "view",
      "type": "function"
    },
    {
      "inputs": [
        {
          "internalType": "address",
          "name": "from",
          "type": "address"
        },
        {
          "internalType": "address",
          "name": "to",
          "type": "address"
        },
        {
          "internalType": "uint256",
          "name": "tokenId",
          "type": "uint256"
        }
      ],
      "name": "transferFrom",
      "outputs": [],
      "stateMutability": "nonpayable",
      "type": "function"
    },
    {
      "inputs": [
        {
          "internalType": "address",
          "name": "newOwner",
          "type": "address"
        }
      ],
      "name": "transferOwnership",
      "outputs": [],
      "stateMutability": "nonpayable",
      "type": "function"
    },
    {
      "inputs": [
        {
          "internalType": "address",
          "name": "_owner",
          "type": "address"
        }
      ],
      "name": "walletOfOwner",
      "outputs": [
        {
          "internalType": "uint256[]",
          "name": "",
          "type": "uint256[]"
        }
      ],
      "stateMutability": "view",
      "type": "function"
    },
    {
      "inputs": [],
      "name": "withdraw",
      "outputs": [],
      "stateMutability": "payable",
      "type": "function"
    }
  ],
  "object": "0x60806040526040518060400160405280600581526020017f2e6a736f6e000000000000000000000000000000000000000000000000000000815250600c90816200004a919062000575565b5066b1a2bc2ec50000600f556103e8601055600a60115560036012556000601360006101000a81548160ff0219169083151502179055503480156200008e57600080fd5b5060405162005043380380620050438339818101604052810190620000b49190620007c0565b83838160009081620000c7919062000575565b508060019081620000d9919062000575565b505050620000fc620000f06200012860201b60201c565b6200013060201b60201c565b6200010d82620001f660201b60201c565b6200011e816200021b60201b60201c565b5050505062000931565b600033905090565b6000600a60009054906101000a900473ffffffffffffffffffffffffffffffffffffffff16905081600a60006101000a81548173ffffffffffffffffffffffffffffffffffffffff021916908373ffffffffffffffffffffffffffffffffffffffff1602179055508173ffffffffffffffffffffffffffffffffffffffff168173ffffffffffffffffffffffffffffffffffffffff167f8be0079c531659141344cd1fd0a4f28419497f9722a3daafe3b4186f6b6457e060405160405180910390a35050565b620002066200024060201b60201c565b80600b908162000217919062000575565b5050565b6200022b6200024060201b60201c565b80600d90816200023c919062000575565b5050565b620002506200012860201b60201c565b73ffffffffffffffffffffffffffffffffffffffff1662000276620002d160201b60201c565b73ffffffffffffffffffffffffffffffffffffffff1614620002cf576040517f08c379a0000000000000000000000000000000000000000000000000000000008152600401620002c6906200090f565b60405180910390fd5b565b6000600a60009054906101000a900473ffffffffffffffffffffffffffffffffffffffff16905090565b600081519050919050565b7f4e487b7100000000000000000000000000000000000000000000000000000000600052604160045260246000fd5b7f4e487b7100000000000000000000000000000000000000000000000000000000600052602260045260246000fd5b600060028204905060018216806200037d57607f821691505b60208210810362000393576200039262000335565b5b50919050565b60008190508160005260206000209050919050565b60006020601f8301049050919050565b600082821b905092915050565b600060088302620003fd7fffffffffffffffffffffffffffffffffffffffffffffffffffffffffffffffff82620003be565b620004098683620003be565b95508019841693508086168417925050509392505050565b6000819050919050565b6000819050919050565b600062000456620004506200044a8462000421565b6200042b565b62000421565b9050919050565b6000819050919050565b620004728362000435565b6200048a62000481826200045d565b848454620003cb565b825550505050565b600090565b620004a162000492565b620004ae81848462000467565b505050565b5b81811015620004d657620004ca60008262000497565b600181019050620004b4565b5050565b601f8211156200052557620004ef8162000399565b620004fa84620003ae565b810160208510156200050a578190505b620005226200051985620003ae565b830182620004b3565b50505b505050565b600082821c905092915050565b60006200054a600019846008026200052a565b1980831691505092915050565b600062000565838362000537565b9150826002028217905092915050565b6200058082620002fb565b67ffffffffffffffff8111156200059c576200059b62000306565b5b620005a8825462000364565b620005b5828285620004da565b600060209050601f831160018114620005ed5760008415620005d8578287015190505b620005e4858262000557565b86555062000654565b601f198416620005fd8662000399565b60005b82811015620006275784890151825560018201915060208501945060208101905062000600565b8683101562000647578489015162000643601f89168262000537565b8355505b6001600288020188555050505b505050505050565b6000604051905090565b600080fd5b600080fd5b600080fd5b600080fd5b6000601f19601f8301169050919050565b62000696826200067a565b810181811067ffffffffffffffff82111715620006b857620006b762000306565b5b80604052505050565b6000620006cd6200065c565b9050620006db82826200068b565b919050565b600067ffffffffffffffff821115620006fe57620006fd62000306565b5b62000709826200067a565b9050602081019050919050565b60005b838110156200073657808201518184015260208101905062000719565b60008484015250505050565b6000620007596200075384620006e0565b620006c1565b90508281526020810184848401111562000778576200077762000675565b5b6200078584828562000716565b509392505050565b600082601f830112620007a557620007a462000670565b5b8151620007b784826020860162000742565b91505092915050565b60008060008060808587031215620007dd57620007dc62000666565b5b600085015167ffffffffffffffff811115620007fe57620007fd6200066b565b5b6200080c878288016200078d565b945050602085015167ffffffffffffffff81111562000830576200082f6200066b565b5b6200083e878288016200078d565b935050604085015167ffffffffffffffff8111156200086257620008616200066b565b5b62000870878288016200078d565b925050606085015167ffffffffffffffff8111156200089457620008936200066b565b5b620008a2878288016200078d565b91505092959194509250565b600082825260208201905092915050565b7f4f776e61626c653a2063616c6c6572206973206e6f7420746865206f776e6572600082015250565b6000620008f7602083620008ae565b91506200090482620008bf565b602082019050919050565b600060208201905081810360008301526200092a81620008e8565b9050919050565b61470280620009416000396000f3fe6080604052600436106102255760003560e01c806370a0823111610123578063ba7d2c76116100ab578063da3ef23f1161006f578063da3ef23f146107db578063e985e9c514610804578063f2c4ce1e14610841578063f2fde38b1461086a578063f7ea7a3d1461089357610225565b8063ba7d2c76146106f4578063c66828621461071f578063c87b56dd1461074a578063d0eb26b014610787578063d5abeb01146107b057610225565b806395d89b41116100f257806395d89b4114610644578063a0712d681461066f578063a22cb4651461068b578063a475b5dd146106b4578063b88d4fde146106cb57610225565b806370a082311461059c578063715018a6146105d95780637f00c7a6146105f05780638da5cb5b1461061957610225565b80632f745c59116101b15780634f6ccce7116101755780634f6ccce7146104a357806351830227146104e057806355f804b31461050b5780636352211e146105345780636c0360eb1461057157610225565b80632f745c59146103cd5780633ccfd60b1461040a57806342842e0e14610414578063438b63001461043d57806344a0d68a1461047a57610225565b8063095ea7b3116101f8578063095ea7b3146102fa57806313faede61461032357806318160ddd1461034e578063239c70ae1461037957806323b872dd146103a457610225565b806301ffc9a71461022a57806306fdde0314610267578063081812fc14610292578063081c8c44146102cf575b600080fd5b34801561023657600080fd5b50610251600480360381019061024c9190612dd9565b6108bc565b60405161025e9190612e21565b60405180910390f35b34801561027357600080fd5b5061027c610936565b6040516102899190612ecc565b60405180910390f35b34801561029e57600080fd5b506102b960048036038101906102b49190612f24565b6109c8565b6040516102c69190612f92565b60405180910390f35b3480156102db57600080fd5b506102e4610a0e565b6040516102f19190612ecc565b60405180910390f35b34801561030657600080fd5b50610321600480360381019061031c9190612fd9565b610a9c565b005b34801561032f57600080fd5b50610338610bb3565b6040516103459190613028565b60405180910390f35b34801561035a57600080fd5b50610363610bb9565b6040516103709190613028565b60405180910390f35b34801561038557600080fd5b5061038e610bc6565b60405161039b9190613028565b60405180910390f35b3480156103b057600080fd5b506103cb60048036038101906103c69190613043565b610bcc565b005b3480156103d957600080fd5b506103f460048036038101906103ef9190612fd9565b610c2c565b6040516104019190613028565b60405180910390f35b610412610cd1565b005b34801561042057600080fd5b5061043b60048036038101906104369190613043565b610d52565b005b34801561044957600080fd5b50610464600480360381019061045f9190613096565b610d72565b6040516104719190613181565b60405180910390f35b34801561048657600080fd5b506104a1600480360381019061049c9190612f24565b610e20565b005b3480156104af57600080fd5b506104ca60048036038101906104c59190612f24565b610e32565b6040516104d79190613028565b60405180910390f35b3480156104ec57600080fd5b506104f5610ea3565b6040516105029190612e21565b60405180910390f35b34801561051757600080fd5b50610532600480360381019061052d91906132d8565b610eb6565b005b34801561054057600080fd5b5061055b60048036038101906105569190612f24565b610ed1565b6040516105689190612f92565b60405180910390f35b34801561057d57600080fd5b50610586610f57565b6040516105939190612ecc565b60405180910390f35b3480156105a857600080fd5b506105c360048036038101906105be9190613096565b610fe5565b6040516105d09190613028565b60405180910390f35b3480156105e557600080fd5b506105ee61109c565b005b3480156105fc57600080fd5b5061061760048036038101906106129190612f24565b6110b0565b005b34801561062557600080fd5b5061062e6110c2565b60405161063b9190612f92565b60405180910390f35b34801561065057600080fd5b506106596110ec565b6040516106669190612ecc565b60405180910390f35b61068960048036038101906106849190612f24565b61117e565b005b34801561069757600080fd5b506106b260048036038101906106ad919061334d565b61137a565b005b3480156106c057600080fd5b506106c9611390565b005b3480156106d757600080fd5b506106f260048036038101906106ed919061342e565b6113b5565b005b34801561070057600080fd5b50610709611417565b6040516107169190613028565b60405180910390f35b34801561072b57600080fd5b5061073461141d565b6040516107419190612ecc565b60405180910390f35b34801561075657600080fd5b50610771600480360381019061076c9190612f24565b6114ab565b60405161077e9190612ecc565b60405180910390f35b34801561079357600080fd5b506107ae60048036038101906107a99190612f24565b611603565b005b3480156107bc57600080fd5b506107c5611615565b6040516107d29190613028565b60405180910390f35b3480156107e757600080fd5b5061080260048036038101906107fd91906132d8565b61161b565b005b34801561081057600080fd5b5061082b600480360381019061082691906134b1565b611636565b6040516108389190612e21565b60405180910390f35b34801561084d57600080fd5b50610868600480360381019061086391906132d8565b6116ca565b005b34801561087657600080fd5b50610891600480360381019061088c9190613096565b6116e5565b005b34801561089f57600080fd5b506108ba60048036038101906108b59190612f24565b611768565b005b60007f780e9d63000000000000000000000000000000000000000000000000000000007bffffffffffffffffffffffffffffffffffffffffffffffffffffffff1916827bffffffffffffffffffffffffffffffffffffffffffffffffffffffff1916148061092f575061092e8261177a565b5b9050919050565b60606000805461094590613520565b80601f016020809104026020016040519081016040528092919081815260200182805461097190613520565b80156109be5780601f10610993576101008083540402835291602001916109be565b820191906000526020600020905b8154815290600101906020018083116109a157829003601f168201915b5050505050905090565b60006109d38261185c565b6004600083815260200190815260200160002060009054906101000a900473ffffffffffffffffffffffffffffffffffffffff169050919050565b600d8054610a1b90613520565b80601f0160208091040260200160405190810160405280929190818152602001828054610a4790613520565b8015610a945780601f10610a6957610100808354040283529160200191610a94565b820191906000526020600020905b815481529060010190602001808311610a7757829003601f168201915b505050505081565b6000610aa782610ed1565b90508073ffffffffffffffffffffffffffffffffffffffff168373ffffffffffffffffffffffffffffffffffffffff1603610b17576040517f08c379a0000000000000000000000000000000000000000000000000000000008152600401610b0e906135c3565b60405180910390fd5b8073ffffffffffffffffffffffffffffffffffffffff16610b366118a7565b73ffffffffffffffffffffffffffffffffffffffff161480610b655750610b6481610b5f6118a7565b611636565b5b610ba4576040517f08c379a0000000000000000000000000000000000000000000000000000000008152600401610b9b90613655565b60405180910390fd5b610bae83836118af565b505050565b600f5481565b6000600880549050905090565b60115481565b610bdd610bd76118a7565b82611968565b610c1c576040517f08c379a0000000000000000000000000000000000000000000000000000000008152600401610c13906136e7565b60405180910390fd5b610c278383836119fd565b505050565b6000610c3783610fe5565b8210610c78576040517f08c379a0000000000000000000000000000000000000000000000000000000008152600401610c6f90613779565b60405180910390fd5b600660008473ffffffffffffffffffffffffffffffffffffffff1673ffffffffffffffffffffffffffffffffffffffff168152602001908152602001600020600083815260200190815260200160002054905092915050565b610cd9611cf6565b60003373ffffffffffffffffffffffffffffffffffffffff1647604051610cff906137ca565b60006040518083038185875af1925050503d8060008114610d3c576040519150601f19603f3d011682016040523d82523d6000602084013e610d41565b606091505b5050905080610d4f57600080fd5b50565b610d6d838383604051806020016040528060008152506113b5565b505050565b60606000610d7f83610fe5565b905060008167ffffffffffffffff811115610d9d57610d9c6131ad565b5b604051908082528060200260200182016040528015610dcb5781602001602082028036833780820191505090505b50905060005b82811015610e1557610de38582610c2c565b828281518110610df657610df56137df565b5b6020026020010181815250508080610e0d9061383d565b915050610dd1565b508092505050919050565b610e28611cf6565b80600f8190555050565b6000610e3c610bb9565b8210610e7d576040517f08c379a0000000000000000000000000000000000000000000000000000000008152600401610e74906138f7565b60405180910390fd5b60088281548110610e9157610e906137df565b5b90600052602060002001549050919050565b601360009054906101000a900460ff1681565b610ebe611cf6565b80600b9081610ecd9190613ac3565b5050565b600080610edd83611d74565b9050600073ffffffffffffffffffffffffffffffffffffffff168173ffffffffffffffffffffffffffffffffffffffff1603610f4e576040517f08c379a0000000000000000000000000000000000000000000000000000000008152600401610f4590613be1565b60405180910390fd5b80915050919050565b600b8054610f6490613520565b80601f0160208091040260200160405190810160405280929190818152602001828054610f9090613520565b8015610fdd5780601f10610fb257610100808354040283529160200191610fdd565b820191906000526020600020905b815481529060010190602001808311610fc057829003601f168201915b505050505081565b60008073ffffffffffffffffffffffffffffffffffffffff168273ffffffffffffffffffffffffffffffffffffffff1603611055576040517f08c379a000000000000000000000000000000000000000000000000000000000815260040161104c90613c73565b60405180910390fd5b600360008373ffffffffffffffffffffffffffffffffffffffff1673ffffffffffffffffffffffffffffffffffffffff168152602001908152602001600020549050919050565b6110a4611cf6565b6110ae6000611db1565b565b6110b8611cf6565b8060118190555050565b6000600a60009054906101000a900473ffffffffffffffffffffffffffffffffffffffff16905090565b6060600180546110fb90613520565b80601f016020809104026020016040519081016040528092919081815260200182805461112790613520565b80156111745780601f1061114957610100808354040283529160200191611174565b820191906000526020600020905b81548152906001019060200180831161115757829003601f168201915b5050505050905090565b6000611188610bb9565b9050600082116111cd576040517f08c379a00000000000000000000000000000000000000000000000000000000081526004016111c490613cdf565b60405180910390fd5b601154821115611212576040517f08c379a000000000000000000000000000000000000000000000000000000000815260040161120990613d71565b60405180910390fd5b60105482826112219190613d91565b1115611262576040517f08c379a000000000000000000000000000000000000000000000000000000000815260040161125990613e11565b60405180910390fd5b61126a6110c2565b73ffffffffffffffffffffffffffffffffffffffff163373ffffffffffffffffffffffffffffffffffffffff161461133f5760006112a733610fe5565b905060125481106112ed576040517f08c379a00000000000000000000000000000000000000000000000000000000081526004016112e490613e7d565b60405180910390fd5b82600f546112fb9190613e9d565b34101561133d576040517f08c379a000000000000000000000000000000000000000000000000000000000815260040161133490613f2b565b60405180910390fd5b505b6000600190505b8281116113755761136233828461135d9190613d91565b611e77565b808061136d9061383d565b915050611346565b505050565b61138c6113856118a7565b8383611e95565b5050565b611398611cf6565b6001601360006101000a81548160ff021916908315150217905550565b6113c66113c06118a7565b83611968565b611405576040517f08c379a00000000000000000000000000000000000000000000000000000000081526004016113fc906136e7565b60405180910390fd5b61141184848484612001565b50505050565b60125481565b600c805461142a90613520565b80601f016020809104026020016040519081016040528092919081815260200182805461145690613520565b80156114a35780601f10611478576101008083540402835291602001916114a3565b820191906000526020600020905b81548152906001019060200180831161148657829003601f168201915b505050505081565b60606114b68261205d565b6114f5576040517f08c379a00000000000000000000000000000000000000000000000000000000081526004016114ec90613fbd565b60405180910390fd5b60001515601360009054906101000a900460ff161515036115a257600d805461151d90613520565b80601f016020809104026020016040519081016040528092919081815260200182805461154990613520565b80156115965780601f1061156b57610100808354040283529160200191611596565b820191906000526020600020905b81548152906001019060200180831161157957829003601f168201915b505050505090506115fe565b60006115ac61209e565b905060008151116115cc57604051806020016040528060008152506115fa565b806115d684612130565b600c6040516020016115ea9392919061409c565b6040516020818303038152906040525b9150505b919050565b61160b611cf6565b8060128190555050565b60105481565b611623611cf6565b80600c90816116329190613ac3565b5050565b6000600560008473ffffffffffffffffffffffffffffffffffffffff1673ffffffffffffffffffffffffffffffffffffffff16815260200190815260200160002060008373ffffffffffffffffffffffffffffffffffffffff1673ffffffffffffffffffffffffffffffffffffffff16815260200190815260200160002060009054906101000a900460ff16905092915050565b6116d2611cf6565b80600d90816116e19190613ac3565b5050565b6116ed611cf6565b600073ffffffffffffffffffffffffffffffffffffffff168173ffffffffffffffffffffffffffffffffffffffff160361175c576040517f08c379a00000000000000000000000000000000000000000000000000000000081526004016117539061413f565b60405180910390fd5b61176581611db1565b50565b611770611cf6565b8060108190555050565b60007f80ac58cd000000000000000000000000000000000000000000000000000000007bffffffffffffffffffffffffffffffffffffffffffffffffffffffff1916827bffffffffffffffffffffffffffffffffffffffffffffffffffffffff1916148061184557507f5b5e139f000000000000000000000000000000000000000000000000000000007bffffffffffffffffffffffffffffffffffffffffffffffffffffffff1916827bffffffffffffffffffffffffffffffffffffffffffffffffffffffff1916145b806118555750611854826121fe565b5b9050919050565b6118658161205d565b6118a4576040517f08c379a000000000000000000000000000000000000000000000000000000000815260040161189b90613be1565b60405180910390fd5b50565b600033905090565b816004600083815260200190815260200160002060006101000a81548173ffffffffffffffffffffffffffffffffffffffff021916908373ffffffffffffffffffffffffffffffffffffffff160217905550808273ffffffffffffffffffffffffffffffffffffffff1661192283610ed1565b73ffffffffffffffffffffffffffffffffffffffff167f8c5be1e5ebec7d5bd14f71427d1e84f3dd0314c0f7b2291e5b200ac8c7c3b92560405160405180910390a45050565b60008061197483610ed1565b90508073ffffffffffffffffffffffffffffffffffffffff168473ffffffffffffffffffffffffffffffffffffffff1614806119b657506119b58185611636565b5b806119f457508373ffffffffffffffffffffffffffffffffffffffff166119dc846109c8565b73ffffffffffffffffffffffffffffffffffffffff16145b91505092915050565b8273ffffffffffffffffffffffffffffffffffffffff16611a1d82610ed1565b73ffffffffffffffffffffffffffffffffffffffff1614611a73576040517f08c379a0000000000000000000000000000000000000000000000000000000008152600401611a6a906141d1565b60405180910390fd5b600073ffffffffffffffffffffffffffffffffffffffff168273ffffffffffffffffffffffffffffffffffffffff1603611ae2576040517f08c379a0000000000000000000000000000000000000000000000000000000008152600401611ad990614263565b60405180910390fd5b611aef8383836001612268565b8273ffffffffffffffffffffffffffffffffffffffff16611b0f82610ed1565b73ffffffffffffffffffffffffffffffffffffffff1614611b65576040517f08c379a0000000000000000000000000000000000000000000000000000000008152600401611b5c906141d1565b60405180910390fd5b6004600082815260200190815260200160002060006101000a81549073ffffffffffffffffffffffffffffffffffffffff02191690556001600360008573ffffffffffffffffffffffffffffffffffffffff1673ffffffffffffffffffffffffffffffffffffffff168152602001908152602001600020600082825403925050819055506001600360008473ffffffffffffffffffffffffffffffffffffffff1673ffffffffffffffffffffffffffffffffffffffff16815260200190815260200160002060008282540192505081905550816002600083815260200190815260200160002060006101000a81548173ffffffffffffffffffffffffffffffffffffffff021916908373ffffffffffffffffffffffffffffffffffffffff160217905550808273ffffffffffffffffffffffffffffffffffffffff168473ffffffffffffffffffffffffffffffffffffffff167fddf252ad1be2c89b69c2b068fc378daa952ba7f163c4a11628f55a4df523b3ef60405160405180910390a4611cf183838360016123c6565b505050565b611cfe6118a7565b73ffffffffffffffffffffffffffffffffffffffff16611d1c6110c2565b73ffffffffffffffffffffffffffffffffffffffff1614611d72576040517f08c379a0000000000000000000000000000000000000000000000000000000008152600401611d69906142cf565b60405180910390fd5b565b60006002600083815260200190815260200160002060009054906101000a900473ffffffffffffffffffffffffffffffffffffffff169050919050565b6000600a60009054906101000a900473ffffffffffffffffffffffffffffffffffffffff16905081600a60006101000a81548173ffffffffffffffffffffffffffffffffffffffff021916908373ffffffffffffffffffffffffffffffffffffffff1602179055508173ffffffffffffffffffffffffffffffffffffffff168173ffffffffffffffffffffffffffffffffffffffff167f8be0079c531659141344cd1fd0a4f28419497f9722a3daafe3b4186f6b6457e060405160405180910390a35050565b611e918282604051806020016040528060008152506123cc565b5050565b8173ffffffffffffffffffffffffffffffffffffffff168373ffffffffffffffffffffffffffffffffffffffff1603611f03576040517f08c379a0000000000000000000000000000000000000000000000000000000008152600401611efa9061433b565b60405180910390fd5b80600560008573ffffffffffffffffffffffffffffffffffffffff1673ffffffffffffffffffffffffffffffffffffffff16815260200190815260200160002060008473ffffffffffffffffffffffffffffffffffffffff1673ffffffffffffffffffffffffffffffffffffffff16815260200190815260200160002060006101000a81548160ff0219169083151502179055508173ffffffffffffffffffffffffffffffffffffffff168373ffffffffffffffffffffffffffffffffffffffff167f17307eab39ab6107e8899845ad3d59bd9653f200f220920489ca2b5937696c3183604051611ff49190612e21565b60405180910390a3505050565b61200c8484846119fd565b61201884848484612427565b612057576040517f08c379a000000000000000000000000000000000000000000000000000000000815260040161204e906143cd565b60405180910390fd5b50505050565b60008073ffffffffffffffffffffffffffffffffffffffff1661207f83611d74565b73ffffffffffffffffffffffffffffffffffffffff1614159050919050565b6060600b80546120ad90613520565b80601f01602080910402602001604051908101604052809291908181526020018280546120d990613520565b80156121265780601f106120fb57610100808354040283529160200191612126565b820191906000526020600020905b81548152906001019060200180831161210957829003601f168201915b5050505050905090565b60606000600161213f846125ae565b01905060008167ffffffffffffffff81111561215e5761215d6131ad565b5b6040519080825280601f01601f1916602001820160405280156121905781602001600182028036833780820191505090505b509050600082602001820190505b6001156121f3578080600190039150507f3031323334353637383961626364656600000000000000000000000000000000600a86061a8153600a85816121e7576121e66143ed565b5b0494506000850361219e575b819350505050919050565b60007f01ffc9a7000000000000000000000000000000000000000000000000000000007bffffffffffffffffffffffffffffffffffffffffffffffffffffffff1916827bffffffffffffffffffffffffffffffffffffffffffffffffffffffff1916149050919050565b61227484848484612701565b60018111156122b8576040517f08c379a00000000000000000000000000000000000000000000000000000000081526004016122af9061448e565b60405180910390fd5b6000829050600073ffffffffffffffffffffffffffffffffffffffff168573ffffffffffffffffffffffffffffffffffffffff16036122ff576122fa81612827565b61233e565b8373ffffffffffffffffffffffffffffffffffffffff168573ffffffffffffffffffffffffffffffffffffffff161461233d5761233c8582612870565b5b5b600073ffffffffffffffffffffffffffffffffffffffff168473ffffffffffffffffffffffffffffffffffffffff16036123805761237b816129dd565b6123bf565b8473ffffffffffffffffffffffffffffffffffffffff168473ffffffffffffffffffffffffffffffffffffffff16146123be576123bd8482612aae565b5b5b5050505050565b50505050565b6123d68383612b2d565b6123e36000848484612427565b612422576040517f08c379a0000000000000000000000000000000000000000000000000000000008152600401612419906143cd565b60405180910390fd5b505050565b60006124488473ffffffffffffffffffffffffffffffffffffffff16612d4a565b156125a1578373ffffffffffffffffffffffffffffffffffffffff1663150b7a026124716118a7565b8786866040518563ffffffff1660e01b81526004016124939493929190614503565b6020604051808303816000875af19250505080156124cf57506040513d601f19601f820116820180604052508101906124cc9190614564565b60015b612551573d80600081146124ff576040519150601f19603f3d011682016040523d82523d6000602084013e612504565b606091505b506000815103612549576040517f08c379a0000000000000000000000000000000000000000000000000000000008152600401612540906143cd565b60405180910390fd5b805181602001fd5b63150b7a0260e01b7bffffffffffffffffffffffffffffffffffffffffffffffffffffffff1916817bffffffffffffffffffffffffffffffffffffffffffffffffffffffff1916149150506125a6565b600190505b949350505050565b600080600090507a184f03e93ff9f4daa797ed6e38ed64bf6a1f010000000000000000831061260c577a184f03e93ff9f4daa797ed6e38ed64bf6a1f0100000000000000008381612602576126016143ed565b5b0492506040810190505b6d04ee2d6d415b85acef81000000008310612649576d04ee2d6d415b85acef8100000000838161263f5761263e6143ed565b5b0492506020810190505b662386f26fc10000831061267857662386f26fc10000838161266e5761266d6143ed565b5b0492506010810190505b6305f5e10083106126a1576305f5e1008381612697576126966143ed565b5b0492506008810190505b61271083106126c65761271083816126bc576126bb6143ed565b5b0492506004810190505b606483106126e957606483816126df576126de6143ed565b5b0492506002810190505b600a83106126f8576001810190505b80915050919050565b600181111561282157600073ffffffffffffffffffffffffffffffffffffffff168473ffffffffffffffffffffffffffffffffffffffff16146127955780600360008673ffffffffffffffffffffffffffffffffffffffff1673ffffffffffffffffffffffffffffffffffffffff168152602001908152602001600020600082825461278d9190614591565b925050819055505b600073ffffffffffffffffffffffffffffffffffffffff168373ffffffffffffffffffffffffffffffffffffffff16146128205780600360008573ffffffffffffffffffffffffffffffffffffffff1673ffffffffffffffffffffffffffffffffffffffff16815260200190815260200160002060008282546128189190613d91565b925050819055505b5b50505050565b6008805490506009600083815260200190815260200160002081905550600881908060018154018082558091505060019003906000526020600020016000909190919091505550565b6000600161287d84610fe5565b6128879190614591565b905060006007600084815260200190815260200160002054905081811461296c576000600660008673ffffffffffffffffffffffffffffffffffffffff1673ffffffffffffffffffffffffffffffffffffffff168152602001908152602001600020600084815260200190815260200160002054905080600660008773ffffffffffffffffffffffffffffffffffffffff1673ffffffffffffffffffffffffffffffffffffffff168152602001908152602001600020600084815260200190815260200160002081905550816007600083815260200190815260200160002081905550505b6007600084815260200190815260200160002060009055600660008573ffffffffffffffffffffffffffffffffffffffff1673ffffffffffffffffffffffffffffffffffffffff16815260200190815260200160002060008381526020019081526020016000206000905550505050565b600060016008805490506129f19190614591565b9050600060096000848152602001908152602001600020549050600060088381548110612a2157612a206137df565b5b906000526020600020015490508060088381548110612a4357612a426137df565b5b906000526020600020018190555081600960008381526020019081526020016000208190555060096000858152602001908152602001600020600090556008805480612a9257612a916145c5565b5b6001900381819060005260206000200160009055905550505050565b6000612ab983610fe5565b905081600660008573ffffffffffffffffffffffffffffffffffffffff1673ffffffffffffffffffffffffffffffffffffffff168152602001908152602001600020600083815260200190815260200160002081905550806007600084815260200190815260200160002081905550505050565b600073ffffffffffffffffffffffffffffffffffffffff168273ffffffffffffffffffffffffffffffffffffffff1603612b9c576040517f08c379a0000000000000000000000000000000000000000000000000000000008152600401612b9390614640565b60405180910390fd5b612ba58161205d565b15612be5576040517f08c379a0000000000000000000000000000000000000000000000000000000008152600401612bdc906146ac565b60405180910390fd5b612bf3600083836001612268565b612bfc8161205d565b15612c3c576040517f08c379a0000000000000000000000000000000000000000000000000000000008152600401612c33906146ac565b60405180910390fd5b6001600360008473ffffffffffffffffffffffffffffffffffffffff1673ffffffffffffffffffffffffffffffffffffffff16815260200190815260200160002060008282540192505081905550816002600083815260200190815260200160002060006101000a81548173ffffffffffffffffffffffffffffffffffffffff021916908373ffffffffffffffffffffffffffffffffffffffff160217905550808273ffffffffffffffffffffffffffffffffffffffff16600073ffffffffffffffffffffffffffffffffffffffff167fddf252ad1be2c89b69c2b068fc378daa952ba7f163c4a11628f55a4df523b3ef60405160405180910390a4612d466000838360016123c6565b5050565b6000808273ffffffffffffffffffffffffffffffffffffffff163b119050919050565b6000604051905090565b600080fd5b600080fd5b60007fffffffff0000000000000000000000000000000000000000000000000000000082169050919050565b612db681612d81565b8114612dc157600080fd5b50565b600081359050612dd381612dad565b92915050565b600060208284031215612def57612dee612d77565b5b6000612dfd84828501612dc4565b91505092915050565b60008115159050919050565b612e1b81612e06565b82525050565b6000602082019050612e366000830184612e12565b92915050565b600081519050919050565b600082825260208201905092915050565b60005b83811015612e76578082015181840152602081019050612e5b565b60008484015250505050565b6000601f19601f8301169050919050565b6000612e9e82612e3c565b612ea88185612e47565b9350612eb8818560208601612e58565b612ec181612e82565b840191505092915050565b60006020820190508181036000830152612ee68184612e93565b905092915050565b6000819050919050565b612f0181612eee565b8114612f0c57600080fd5b50565b600081359050612f1e81612ef8565b92915050565b600060208284031215612f3a57612f39612d77565b5b6000612f4884828501612f0f565b91505092915050565b600073ffffffffffffffffffffffffffffffffffffffff82169050919050565b6000612f7c82612f51565b9050919050565b612f8c81612f71565b82525050565b6000602082019050612fa76000830184612f83565b92915050565b612fb681612f71565b8114612fc157600080fd5b50565b600081359050612fd381612fad565b92915050565b60008060408385031215612ff057612fef612d77565b5b6000612ffe85828601612fc4565b925050602061300f85828601612f0f565b9150509250929050565b61302281612eee565b82525050565b600060208201905061303d6000830184613019565b92915050565b60008060006060848603121561305c5761305b612d77565b5b600061306a86828701612fc4565b935050602061307b86828701612fc4565b925050604061308c86828701612f0f565b9150509250925092565b6000602082840312156130ac576130ab612d77565b5b60006130ba84828501612fc4565b91505092915050565b600081519050919050565b600082825260208201905092915050565b6000819050602082019050919050565b6130f881612eee565b82525050565b600061310a83836130ef565b60208301905092915050565b6000602082019050919050565b600061312e826130c3565b61313881856130ce565b9350613143836130df565b8060005b8381101561317457815161315b88826130fe565b975061316683613116565b925050600181019050613147565b5085935050505092915050565b6000602082019050818103600083015261319b8184613123565b905092915050565b600080fd5b600080fd5b7f4e487b7100000000000000000000000000000000000000000000000000000000600052604160045260246000fd5b6131e582612e82565b810181811067ffffffffffffffff82111715613204576132036131ad565b5b80604052505050565b6000613217612d6d565b905061322382826131dc565b919050565b600067ffffffffffffffff821115613243576132426131ad565b5b61324c82612e82565b9050602081019050919050565b82818337600083830152505050565b600061327b61327684613228565b61320d565b905082815260208101848484011115613297576132966131a8565b5b6132a2848285613259565b509392505050565b600082601f8301126132bf576132be6131a3565b5b81356132cf848260208601613268565b91505092915050565b6000602082840312156132ee576132ed612d77565b5b600082013567ffffffffffffffff81111561330c5761330b612d7c565b5b613318848285016132aa565b91505092915050565b61332a81612e06565b811461333557600080fd5b50565b60008135905061334781613321565b92915050565b6000806040838503121561336457613363612d77565b5b600061337285828601612fc4565b925050602061338385828601613338565b9150509250929050565b600067ffffffffffffffff8211156133a8576133a76131ad565b5b6133b182612e82565b9050602081019050919050565b60006133d16133cc8461338d565b61320d565b9050828152602081018484840111156133ed576133ec6131a8565b5b6133f8848285613259565b509392505050565b600082601f830112613415576134146131a3565b5b81356134258482602086016133be565b91505092915050565b6000806000806080858703121561344857613447612d77565b5b600061345687828801612fc4565b945050602061346787828801612fc4565b935050604061347887828801612f0f565b925050606085013567ffffffffffffffff81111561349957613498612d7c565b5b6134a587828801613400565b91505092959194509250565b600080604083850312156134c8576134c7612d77565b5b60006134d685828601612fc4565b92505060206134e785828601612fc4565b9150509250929050565b7f4e487b7100000000000000000000000000000000000000000000000000000000600052602260045260246000fd5b6000600282049050600182168061353857607f821691505b60208210810361354b5761354a6134f1565b5b50919050565b7f4552433732313a20617070726f76616c20746f2063757272656e74206f776e6560008201527f7200000000000000000000000000000000000000000000000000000000000000602082015250565b60006135ad602183612e47565b91506135b882613551565b604082019050919050565b600060208201905081810360008301526135dc816135a0565b9050919050565b7f4552433732313a20617070726f76652063616c6c6572206973206e6f7420746f60008201527f6b656e206f776e6572206f7220617070726f76656420666f7220616c6c000000602082015250565b600061363f603d83612e47565b915061364a826135e3565b604082019050919050565b6000602082019050818103600083015261366e81613632565b9050919050565b7f4552433732313a2063616c6c6572206973206e6f7420746f6b656e206f776e6560008201527f72206f7220617070726f76656400000000000000000000000000000000000000602082015250565b60006136d1602d83612e47565b91506136dc82613675565b604082019050919050565b60006020820190508181036000830152613700816136c4565b9050919050565b7f455243373231456e756d657261626c653a206f776e657220696e646578206f7560008201527f74206f6620626f756e6473000000000000000000000000000000000000000000602082015250565b6000613763602b83612e47565b915061376e82613707565b604082019050919050565b6000602082019050818103600083015261379281613756565b9050919050565b600081905092915050565b50565b60006137b4600083613799565b91506137bf826137a4565b600082019050919050565b60006137d5826137a7565b9150819050919050565b7f4e487b7100000000000000000000000000000000000000000000000000000000600052603260045260246000fd5b7f4e487b7100000000000000000000000000000000000000000000000000000000600052601160045260246000fd5b600061384882612eee565b91507fffffffffffffffffffffffffffffffffffffffffffffffffffffffffffffffff820361387a5761387961380e565b5b600182019050919050565b7f455243373231456e756d657261626c653a20676c6f62616c20696e646578206f60008201527f7574206f6620626f756e64730000000000000000000000000000000000000000602082015250565b60006138e1602c83612e47565b91506138ec82613885565b604082019050919050565b60006020820190508181036000830152613910816138d4565b9050919050565b60008190508160005260206000209050919050565b60006020601f8301049050919050565b600082821b905092915050565b6000600883026139797fffffffffffffffffffffffffffffffffffffffffffffffffffffffffffffffff8261393c565b613983868361393c565b95508019841693508086168417925050509392505050565b6000819050919050565b60006139c06139bb6139b684612eee565b61399b565b612eee565b9050919050565b6000819050919050565b6139da836139a5565b6139ee6139e6826139c7565b848454613949565b825550505050565b600090565b613a036139f6565b613a0e8184846139d1565b505050565b5b81811015613a3257613a276000826139fb565b600181019050613a14565b5050565b601f821115613a7757613a4881613917565b613a518461392c565b81016020851015613a60578190505b613a74613a6c8561392c565b830182613a13565b50505b505050565b600082821c905092915050565b6000613a9a60001984600802613a7c565b1980831691505092915050565b6000613ab38383613a89565b9150826002028217905092915050565b613acc82612e3c565b67ffffffffffffffff811115613ae557613ae46131ad565b5b613aef8254613520565b613afa828285613a36565b600060209050601f831160018114613b2d5760008415613b1b578287015190505b613b258582613aa7565b865550613b8d565b601f198416613b3b86613917565b60005b82811015613b6357848901518255600182019150602085019450602081019050613b3e565b86831015613b805784890151613b7c601f891682613a89565b8355505b6001600288020188555050505b505050505050565b7f4552433732313a20696e76616c696420746f6b656e2049440000000000000000600082015250565b6000613bcb601883612e47565b9150613bd682613b95565b602082019050919050565b60006020820190508181036000830152613bfa81613bbe565b9050919050565b7f4552433732313a2061646472657373207a65726f206973206e6f74206120766160008201527f6c6964206f776e65720000000000000000000000000000000000000000000000602082015250565b6000613c5d602983612e47565b9150613c6882613c01565b604082019050919050565b60006020820190508181036000830152613c8c81613c50565b9050919050565b7f6e65656420746f206d696e74206174206c656173742031204e46540000000000600082015250565b6000613cc9601b83612e47565b9150613cd482613c93565b602082019050919050565b60006020820190508181036000830152613cf881613cbc565b9050919050565b7f6d6178206d696e7420616d6f756e74207065722073657373696f6e206578636560008201527f6564656400000000000000000000000000000000000000000000000000000000602082015250565b6000613d5b602483612e47565b9150613d6682613cff565b604082019050919050565b60006020820190508181036000830152613d8a81613d4e565b9050919050565b6000613d9c82612eee565b9150613da783612eee565b9250828201905080821115613dbf57613dbe61380e565b5b92915050565b7f6d6178204e4654206c696d697420657863656564656400000000000000000000600082015250565b6000613dfb601683612e47565b9150613e0682613dc5565b602082019050919050565b60006020820190508181036000830152613e2a81613dee565b9050919050565b7f6d6178204e465420706572206164647265737320657863656564656400000000600082015250565b6000613e67601c83612e47565b9150613e7282613e31565b602082019050919050565b60006020820190508181036000830152613e9681613e5a565b9050919050565b6000613ea882612eee565b9150613eb383612eee565b9250828202613ec181612eee565b91508282048414831517613ed857613ed761380e565b5b5092915050565b7f696e73756666696369656e742066756e64730000000000000000000000000000600082015250565b6000613f15601283612e47565b9150613f2082613edf565b602082019050919050565b60006020820190508181036000830152613f4481613f08565b9050919050565b7f4552433732314d657461646174613a2055524920717565727920666f72206e6f60008201527f6e6578697374656e7420746f6b656e0000000000000000000000000000000000602082015250565b6000613fa7602f83612e47565b9150613fb282613f4b565b604082019050919050565b60006020820190508181036000830152613fd681613f9a565b9050919050565b600081905092915050565b6000613ff382612e3c565b613ffd8185613fdd565b935061400d818560208601612e58565b80840191505092915050565b6000815461402681613520565b6140308186613fdd565b9450600182166000811461404b576001811461406057614093565b60ff1983168652811515820286019350614093565b61406985613917565b60005b8381101561408b5781548189015260018201915060208101905061406c565b838801955050505b50505092915050565b60006140a88286613fe8565b91506140b48285613fe8565b91506140c08284614019565b9150819050949350505050565b7f4f776e61626c653a206e6577206f776e657220697320746865207a65726f206160008201527f6464726573730000000000000000000000000000000000000000000000000000602082015250565b6000614129602683612e47565b9150614134826140cd565b604082019050919050565b600060208201905081810360008301526141588161411c565b9050919050565b7f4552433732313a207472616e736665722066726f6d20696e636f72726563742060008201527f6f776e6572000000000000000000000000000000000000000000000000000000602082015250565b60006141bb602583612e47565b91506141c68261415f565b604082019050919050565b600060208201905081810360008301526141ea816141ae565b9050919050565b7f4552433732313a207472616e7366657220746f20746865207a65726f2061646460008201527f7265737300000000000000000000000000000000000000000000000000000000602082015250565b600061424d602483612e47565b9150614258826141f1565b604082019050919050565b6000602082019050818103600083015261427c81614240565b9050919050565b7f4f776e61626c653a2063616c6c6572206973206e6f7420746865206f776e6572600082015250565b60006142b9602083612e47565b91506142c482614283565b602082019050919050565b600060208201905081810360008301526142e8816142ac565b9050919050565b7f4552433732313a20617070726f766520746f2063616c6c657200000000000000600082015250565b6000614325601983612e47565b9150614330826142ef565b602082019050919050565b6000602082019050818103600083015261435481614318565b9050919050565b7f4552433732313a207472616e7366657220746f206e6f6e20455243373231526560008201527f63656976657220696d706c656d656e7465720000000000000000000000000000602082015250565b60006143b7603283612e47565b91506143c28261435b565b604082019050919050565b600060208201905081810360008301526143e6816143aa565b9050919050565b7f4e487b7100000000000000000000000000000000000000000000000000000000600052601260045260246000fd5b7f455243373231456e756d657261626c653a20636f6e736563757469766520747260008201527f616e7366657273206e6f7420737570706f727465640000000000000000000000602082015250565b6000614478603583612e47565b91506144838261441c565b604082019050919050565b600060208201905081810360008301526144a78161446b565b9050919050565b600081519050919050565b600082825260208201905092915050565b60006144d5826144ae565b6144df81856144b9565b93506144ef818560208601612e58565b6144f881612e82565b840191505092915050565b60006080820190506145186000830187612f83565b6145256020830186612f83565b6145326040830185613019565b818103606083015261454481846144ca565b905095945050505050565b60008151905061455e81612dad565b92915050565b60006020828403121561457a57614579612d77565b5b60006145888482850161454f565b91505092915050565b600061459c82612eee565b91506145a783612eee565b92508282039050818111156145bf576145be61380e565b5b92915050565b7f4e487b7100000000000000000000000000000000000000000000000000000000600052603160045260246000fd5b7f4552433732313a206d696e7420746f20746865207a65726f2061646472657373600082015250565b600061462a602083612e47565b9150614635826145f4565b602082019050919050565b600060208201905081810360008301526146598161461d565b9050919050565b7f4552433732313a20746f6b656e20616c7265616479206d696e74656400000000600082015250565b6000614696601c83612e47565b91506146a182614660565b602082019050919050565b600060208201905081810360008301526146c581614689565b905091905056fea26469706673582212209a983f5794fe8da44bdbaf8df7b6badd2f88a5748a98c38ecd8acd2dd2015a8064736f6c63430008110033",
  "deployedBytecode": "0x6080604052600436106102255760003560e01c806370a0823111610123578063ba7d2c76116100ab578063da3ef23f1161006f578063da3ef23f146107db578063e985e9c514610804578063f2c4ce1e14610841578063f2fde38b1461086a578063f7ea7a3d1461089357610225565b8063ba7d2c76146106f4578063c66828621461071f578063c87b56dd1461074a578063d0eb26b014610787578063d5abeb01146107b057610225565b806395d89b41116100f257806395d89b4114610644578063a0712d681461066f578063a22cb4651461068b578063a475b5dd146106b4578063b88d4fde146106cb57610225565b806370a082311461059c578063715018a6146105d95780637f00c7a6146105f05780638da5cb5b1461061957610225565b80632f745c59116101b15780634f6ccce7116101755780634f6ccce7146104a357806351830227146104e057806355f804b31461050b5780636352211e146105345780636c0360eb1461057157610225565b80632f745c59146103cd5780633ccfd60b1461040a57806342842e0e14610414578063438b63001461043d57806344a0d68a1461047a57610225565b8063095ea7b3116101f8578063095ea7b3146102fa57806313faede61461032357806318160ddd1461034e578063239c70ae1461037957806323b872dd146103a457610225565b806301ffc9a71461022a57806306fdde0314610267578063081812fc14610292578063081c8c44146102cf575b600080fd5b34801561023657600080fd5b50610251600480360381019061024c91906130f3565b6108bc565b60405161025e919061313b565b60405180910390f35b34801561027357600080fd5b5061027c610936565b60405161028991906131e6565b60405180910390f35b34801561029e57600080fd5b506102b960048036038101906102b4919061323e565b6109c8565b6040516102c691906132ac565b60405180910390f35b3480156102db57600080fd5b506102e4610a4d565b6040516102f191906131e6565b60405180910390f35b34801561030657600080fd5b50610321600480360381019061031c91906132f3565b610adb565b005b34801561032f57600080fd5b50610338610bf2565b6040516103459190613342565b60405180910390f35b34801561035a57600080fd5b50610363610bf8565b6040516103709190613342565b60405180910390f35b34801561038557600080fd5b5061038e610c05565b60405161039b9190613342565b60405180910390f35b3480156103b057600080fd5b506103cb60048036038101906103c6919061335d565b610c0b565b005b3480156103d957600080fd5b506103f460048036038101906103ef91906132f3565b610c6b565b6040516104019190613342565b60405180910390f35b610412610d10565b005b34801561042057600080fd5b5061043b6004803603810190610436919061335d565b610e05565b005b34801561044957600080fd5b50610464600480360381019061045f91906133b0565b610e25565b604051610471919061349b565b60405180910390f35b34801561048657600080fd5b506104a1600480360381019061049c919061323e565b610ed3565b005b3480156104af57600080fd5b506104ca60048036038101906104c5919061323e565b610f59565b6040516104d79190613342565b60405180910390f35b3480156104ec57600080fd5b506104f5610fca565b604051610502919061313b565b60405180910390f35b34801561051757600080fd5b50610532600480360381019061052d91906135f2565b610fdd565b005b34801561054057600080fd5b5061055b6004803603810190610556919061323e565b61106c565b60405161056891906132ac565b60405180910390f35b34801561057d57600080fd5b5061058661111d565b60405161059391906131e6565b60405180910390f35b3480156105a857600080fd5b506105c360048036038101906105be91906133b0565b6111ab565b6040516105d09190613342565b60405180910390f35b3480156105e557600080fd5b506105ee611262565b005b3480156105fc57600080fd5b506106176004803603810190610612919061323e565b6112ea565b005b34801561062557600080fd5b5061062e611370565b60405161063b91906132ac565b60405180910390f35b34801561065057600080fd5b5061065961139a565b60405161066691906131e6565b60405180910390f35b6106896004803603810190610684919061323e565b61142c565b005b34801561069757600080fd5b506106b260048036038101906106ad9190613667565b611628565b005b3480156106c057600080fd5b506106c961163e565b005b3480156106d757600080fd5b506106f260048036038101906106ed9190613748565b6116d7565b005b34801561070057600080fd5b50610709611739565b6040516107169190613342565b60405180910390f35b34801561072b57600080fd5b5061073461173f565b60405161074191906131e6565b60405180910390f35b34801561075657600080fd5b50610771600480360381019061076c919061323e565b6117cd565b60405161077e91906131e6565b60405180910390f35b34801561079357600080fd5b506107ae60048036038101906107a9919061323e565b611925565b005b3480156107bc57600080fd5b506107c56119ab565b6040516107d29190613342565b60405180910390f35b3480156107e757600080fd5b5061080260048036038101906107fd91906135f2565b6119b1565b005b34801561081057600080fd5b5061082b600480360381019061082691906137cb565b611a40565b604051610838919061313b565b60405180910390f35b34801561084d57600080fd5b50610868600480360381019061086391906135f2565b611ad4565b005b34801561087657600080fd5b50610891600480360381019061088c91906133b0565b611b63565b005b34801561089f57600080fd5b506108ba60048036038101906108b5919061323e565b611c5a565b005b60007f780e9d63000000000000000000000000000000000000000000000000000000007bffffffffffffffffffffffffffffffffffffffffffffffffffffffff1916827bffffffffffffffffffffffffffffffffffffffffffffffffffffffff1916148061092f575061092e82611ce0565b5b9050919050565b6060600080546109459061383a565b80601f01602080910402602001604051908101604052809291908181526020018280546109719061383a565b80156109be5780601f10610993576101008083540402835291602001916109be565b820191906000526020600020905b8154815290600101906020018083116109a157829003601f168201915b5050505050905090565b60006109d382611dc2565b610a12576040517f08c379a0000000000000000000000000000000000000000000000000000000008152600401610a09906138dd565b60405180910390fd5b6004600083815260200190815260200160002060009054906101000a900473ffffffffffffffffffffffffffffffffffffffff169050919050565b600d8054610a5a9061383a565b80601f0160208091040260200160405190810160405280929190818152602001828054610a869061383a565b8015610ad35780601f10610aa857610100808354040283529160200191610ad3565b820191906000526020600020905b815481529060010190602001808311610ab657829003601f168201915b505050505081565b6000610ae68261106c565b90508073ffffffffffffffffffffffffffffffffffffffff168373ffffffffffffffffffffffffffffffffffffffff1603610b56576040517f08c379a0000000000000000000000000000000000000000000000000000000008152600401610b4d90613949565b60405180910390fd5b8073ffffffffffffffffffffffffffffffffffffffff16610b75611e2e565b73ffffffffffffffffffffffffffffffffffffffff161480610ba45750610ba381610b9e611e2e565b611a40565b5b610be3576040517f08c379a0000000000000000000000000000000000000000000000000000000008152600401610bda906139db565b60405180910390fd5b610bed8383611e36565b505050565b600f5481565b6000600880549050905090565b60115481565b610c1c610c16611e2e565b82611eef565b610c5b576040517f08c379a0000000000000000000000000000000000000000000000000000000008152600401610c5290613a6d565b60405180910390fd5b610c66838383611fcd565b505050565b6000610c76836111ab565b8210610cb7576040517f08c379a0000000000000000000000000000000000000000000000000000000008152600401610cae90613aff565b60405180910390fd5b600660008473ffffffffffffffffffffffffffffffffffffffff1673ffffffffffffffffffffffffffffffffffffffff168152602001908152602001600020600083815260200190815260200160002054905092915050565b610d18611e2e565b73ffffffffffffffffffffffffffffffffffffffff16610d36611370565b73ffffffffffffffffffffffffffffffffffffffff1614610d8c576040517f08c379a0000000000000000000000000000000000000000000000000000000008152600401610d8390613b6b565b60405180910390fd5b60003373ffffffffffffffffffffffffffffffffffffffff1647604051610db290613bbc565b60006040518083038185875af1925050503d8060008114610def576040519150601f19603f3d011682016040523d82523d6000602084013e610df4565b606091505b5050905080610e0257600080fd5b50565b610e20838383604051806020016040528060008152506116d7565b505050565b60606000610e32836111ab565b905060008167ffffffffffffffff811115610e5057610e4f6134c7565b5b604051908082528060200260200182016040528015610e7e5781602001602082028036833780820191505090505b50905060005b82811015610ec857610e968582610c6b565b828281518110610ea957610ea8613bd1565b5b6020026020010181815250508080610ec090613c2f565b915050610e84565b508092505050919050565b610edb611e2e565b73ffffffffffffffffffffffffffffffffffffffff16610ef9611370565b73ffffffffffffffffffffffffffffffffffffffff1614610f4f576040517f08c379a0000000000000000000000000000000000000000000000000000000008152600401610f4690613b6b565b60405180910390fd5b80600f8190555050565b6000610f63610bf8565b8210610fa4576040517f08c379a0000000000000000000000000000000000000000000000000000000008152600401610f9b90613ce9565b60405180910390fd5b60088281548110610fb857610fb7613bd1565b5b90600052602060002001549050919050565b601360009054906101000a900460ff1681565b610fe5611e2e565b73ffffffffffffffffffffffffffffffffffffffff16611003611370565b73ffffffffffffffffffffffffffffffffffffffff1614611059576040517f08c379a000000000000000000000000000000000000000000000000000000000815260040161105090613b6b565b60405180910390fd5b80600b90816110689190613eb5565b5050565b6000806002600084815260200190815260200160002060009054906101000a900473ffffffffffffffffffffffffffffffffffffffff169050600073ffffffffffffffffffffffffffffffffffffffff168173ffffffffffffffffffffffffffffffffffffffff1603611114576040517f08c379a000000000000000000000000000000000000000000000000000000000815260040161110b90613ff9565b60405180910390fd5b80915050919050565b600b805461112a9061383a565b80601f01602080910402602001604051908101604052809291908181526020018280546111569061383a565b80156111a35780601f10611178576101008083540402835291602001916111a3565b820191906000526020600020905b81548152906001019060200180831161118657829003601f168201915b505050505081565b60008073ffffffffffffffffffffffffffffffffffffffff168273ffffffffffffffffffffffffffffffffffffffff160361121b576040517f08c379a00000000000000000000000000000000000000000000000000000000081526004016112129061408b565b60405180910390fd5b600360008373ffffffffffffffffffffffffffffffffffffffff1673ffffffffffffffffffffffffffffffffffffffff168152602001908152602001600020549050919050565b61126a611e2e565b73ffffffffffffffffffffffffffffffffffffffff16611288611370565b73ffffffffffffffffffffffffffffffffffffffff16146112de576040517f08c379a00000000000000000000000000000000000000000000000000000000081526004016112d590613b6b565b60405180910390fd5b6112e86000612233565b565b6112f2611e2e565b73ffffffffffffffffffffffffffffffffffffffff16611310611370565b73ffffffffffffffffffffffffffffffffffffffff1614611366576040517f08c379a000000000000000000000000000000000000000000000000000000000815260040161135d90613b6b565b60405180910390fd5b8060118190555050565b6000600a60009054906101000a900473ffffffffffffffffffffffffffffffffffffffff16905090565b6060600180546113a99061383a565b80601f01602080910402602001604051908101604052809291908181526020018280546113d59061383a565b80156114225780601f106113f757610100808354040283529160200191611422565b820191906000526020600020905b81548152906001019060200180831161140557829003601f168201915b5050505050905090565b6000611436610bf8565b90506000821161147b576040517f08c379a0000000000000000000000000000000000000000000000000000000008152600401611472906140f7565b60405180910390fd5b6011548211156114c0576040517f08c379a00000000000000000000000000000000000000000000000000000000081526004016114b790614189565b60405180910390fd5b60105482826114cf91906141a9565b1115611510576040517f08c379a000000000000000000000000000000000000000000000000000000000815260040161150790614229565b60405180910390fd5b611518611370565b73ffffffffffffffffffffffffffffffffffffffff163373ffffffffffffffffffffffffffffffffffffffff16146115ed576000611555336111ab565b9050601254811061159b576040517f08c379a000000000000000000000000000000000000000000000000000000000815260040161159290614295565b60405180910390fd5b82600f546115a991906142b5565b3410156115eb576040517f08c379a00000000000000000000000000000000000000000000000000000000081526004016115e290614343565b60405180910390fd5b505b6000600190505b8281116116235761161033828461160b91906141a9565b6122f9565b808061161b90613c2f565b9150506115f4565b505050565b61163a611633611e2e565b8383612317565b5050565b611646611e2e565b73ffffffffffffffffffffffffffffffffffffffff16611664611370565b73ffffffffffffffffffffffffffffffffffffffff16146116ba576040517f08c379a00000000000000000000000000000000000000000000000000000000081526004016116b190613b6b565b60405180910390fd5b6001601360006101000a81548160ff021916908315150217905550565b6116e86116e2611e2e565b83611eef565b611727576040517f08c379a000000000000000000000000000000000000000000000000000000000815260040161171e90613a6d565b60405180910390fd5b61173384848484612483565b50505050565b60125481565b600c805461174c9061383a565b80601f01602080910402602001604051908101604052809291908181526020018280546117789061383a565b80156117c55780601f1061179a576101008083540402835291602001916117c5565b820191906000526020600020905b8154815290600101906020018083116117a857829003601f168201915b505050505081565b60606117d882611dc2565b611817576040517f08c379a000000000000000000000000000000000000000000000000000000000815260040161180e906143d5565b60405180910390fd5b60001515601360009054906101000a900460ff161515036118c457600d805461183f9061383a565b80601f016020809104026020016040519081016040528092919081815260200182805461186b9061383a565b80156118b85780601f1061188d576101008083540402835291602001916118b8565b820191906000526020600020905b81548152906001019060200180831161189b57829003601f168201915b50505050509050611920565b60006118ce6124f2565b905060008151116118ee576040518060200160405280600081525061191c565b806118f884612584565b600c60405160200161190c939291906144b4565b6040516020818303038152906040525b9150505b919050565b61192d611e2e565b73ffffffffffffffffffffffffffffffffffffffff1661194b611370565b73ffffffffffffffffffffffffffffffffffffffff16146119a1576040517f08c379a000000000000000000000000000000000000000000000000000000000815260040161199890613b6b565b60405180910390fd5b8060128190555050565b60105481565b6119b9611e2e565b73ffffffffffffffffffffffffffffffffffffffff166119d7611370565b73ffffffffffffffffffffffffffffffffffffffff1614611a2d576040517f08c379a0000000000000000000000000000000000000000000000000000000008152600401611a2490613b6b565b60405180910390fd5b80600c9081611a3c9190613eb5565b5050565b6000600560008473ffffffffffffffffffffffffffffffffffffffff1673ffffffffffffffffffffffffffffffffffffffff16815260200190815260200160002060008373ffffffffffffffffffffffffffffffffffffffff1673ffffffffffffffffffffffffffffffffffffffff16815260200190815260200160002060009054906101000a900460ff16905092915050565b611adc611e2e565b73ffffffffffffffffffffffffffffffffffffffff16611afa611370565b73ffffffffffffffffffffffffffffffffffffffff1614611b50576040517f08c379a0000000000000000000000000000000000000000000000000000000008152600401611b4790613b6b565b60405180910390fd5b80600d9081611b5f9190613eb5565b5050565b611b6b611e2e565b73ffffffffffffffffffffffffffffffffffffffff16611b89611370565b73ffffffffffffffffffffffffffffffffffffffff1614611bdf576040517f08c379a0000000000000000000000000000000000000000000000000000000008152600401611bd690613b6b565b60405180910390fd5b600073ffffffffffffffffffffffffffffffffffffffff168173ffffffffffffffffffffffffffffffffffffffff1603611c4e576040517f08c379a0000000000000000000000000000000000000000000000000000000008152600401611c4590614557565b60405180910390fd5b611c5781612233565b50565b611c62611e2e565b73ffffffffffffffffffffffffffffffffffffffff16611c80611370565b73ffffffffffffffffffffffffffffffffffffffff1614611cd6576040517f08c379a0000000000000000000000000000000000000000000000000000000008152600401611ccd90613b6b565b60405180910390fd5b8060108190555050565b60007f80ac58cd000000000000000000000000000000000000000000000000000000007bffffffffffffffffffffffffffffffffffffffffffffffffffffffff1916827bffffffffffffffffffffffffffffffffffffffffffffffffffffffff19161480611dab57507f5b5e139f000000000000000000000000000000000000000000000000000000007bffffffffffffffffffffffffffffffffffffffffffffffffffffffff1916827bffffffffffffffffffffffffffffffffffffffffffffffffffffffff1916145b80611dbb5750611dba826126e4565b5b9050919050565b60008073ffffffffffffffffffffffffffffffffffffffff166002600084815260200190815260200160002060009054906101000a900473ffffffffffffffffffffffffffffffffffffffff1673ffffffffffffffffffffffffffffffffffffffff1614159050919050565b600033905090565b816004600083815260200190815260200160002060006101000a81548173ffffffffffffffffffffffffffffffffffffffff021916908373ffffffffffffffffffffffffffffffffffffffff160217905550808273ffffffffffffffffffffffffffffffffffffffff16611ea98361106c565b73ffffffffffffffffffffffffffffffffffffffff167f8c5be1e5ebec7d5bd14f71427d1e84f3dd0314c0f7b2291e5b200ac8c7c3b92560405160405180910390a45050565b6000611efa82611dc2565b611f39576040517f08c379a0000000000000000000000000000000000000000000000000000000008152600401611f30906145e9565b60405180910390fd5b6000611f448361106c565b90508073ffffffffffffffffffffffffffffffffffffffff168473ffffffffffffffffffffffffffffffffffffffff161480611f865750611f858185611a40565b5b80611fc457508373ffffffffffffffffffffffffffffffffffffffff16611fac846109c8565b73ffffffffffffffffffffffffffffffffffffffff16145b91505092915050565b8273ffffffffffffffffffffffffffffffffffffffff16611fed8261106c565b73ffffffffffffffffffffffffffffffffffffffff1614612043576040517f08c379a000000000000000000000000000000000000000000000000000000000815260040161203a9061467b565b60405180910390fd5b600073ffffffffffffffffffffffffffffffffffffffff168273ffffffffffffffffffffffffffffffffffffffff16036120b2576040517f08c379a00000000000000000000000000000000000000000000000000000000081526004016120a99061470d565b60405180910390fd5b6120bd83838361274e565b6120c8600082611e36565b6001600360008573ffffffffffffffffffffffffffffffffffffffff1673ffffffffffffffffffffffffffffffffffffffff1681526020019081526020016000206000828254612118919061472d565b925050819055506001600360008473ffffffffffffffffffffffffffffffffffffffff1673ffffffffffffffffffffffffffffffffffffffff168152602001908152602001600020600082825461216f91906141a9565b92505081905550816002600083815260200190815260200160002060006101000a81548173ffffffffffffffffffffffffffffffffffffffff021916908373ffffffffffffffffffffffffffffffffffffffff160217905550808273ffffffffffffffffffffffffffffffffffffffff168473ffffffffffffffffffffffffffffffffffffffff167fddf252ad1be2c89b69c2b068fc378daa952ba7f163c4a11628f55a4df523b3ef60405160405180910390a461222e838383612860565b505050565b6000600a60009054906101000a900473ffffffffffffffffffffffffffffffffffffffff16905081600a60006101000a81548173ffffffffffffffffffffffffffffffffffffffff021916908373ffffffffffffffffffffffffffffffffffffffff1602179055508173ffffffffffffffffffffffffffffffffffffffff168173ffffffffffffffffffffffffffffffffffffffff167f8be0079c531659141344cd1fd0a4f28419497f9722a3daafe3b4186f6b6457e060405160405180910390a35050565b612313828260405180602001604052806000815250612865565b5050565b8173ffffffffffffffffffffffffffffffffffffffff168373ffffffffffffffffffffffffffffffffffffffff1603612385576040517f08c379a000000000000000000000000000000000000000000000000000000000815260040161237c906147ad565b60405180910390fd5b80600560008573ffffffffffffffffffffffffffffffffffffffff1673ffffffffffffffffffffffffffffffffffffffff16815260200190815260200160002060008473ffffffffffffffffffffffffffffffffffffffff1673ffffffffffffffffffffffffffffffffffffffff16815260200190815260200160002060006101000a81548160ff0219169083151502179055508173ffffffffffffffffffffffffffffffffffffffff168373ffffffffffffffffffffffffffffffffffffffff167f17307eab39ab6107e8899845ad3d59bd9653f200f220920489ca2b5937696c3183604051612476919061313b565b60405180910390a3505050565b61248e848484611fcd565b61249a848484846128d4565b806124ad57506124ac84848484612a2a565b5b6124ec576040517f08c379a00000000000000000000000000000000000000000000000000000000081526004016124e390614865565b60405180910390fd5b50505050565b6060600b80546125019061383a565b80601f016020809104026020016040519081016040528092919081815260200182805461252d9061383a565b801561257a5780601f1061254f5761010080835404028352916020019161257a565b820191906000526020600020905b81548152906001019060200180831161255d57829003601f168201915b5050505050905090565b6060600082036125cb576040518060400160405280600181526020017f300000000000000000000000000000000000000000000000000000000000000081525090506126df565b600082905060005b600082146125fd5780806125e690613c2f565b915050600a826125f691906148b4565b91506125d3565b60008167ffffffffffffffff811115612619576126186134c7565b5b6040519080825280601f01601f19166020018201604052801561264b5781602001600182028036833780820191505090505b5090505b600085146126d857600182612664919061472d565b9150600a8561267391906148e5565b603061267f91906141a9565b60f81b81838151811061269557612694613bd1565b5b60200101907effffffffffffffffffffffffffffffffffffffffffffffffffffffffffffff1916908160001a905350600a856126d191906148b4565b945061264f565b8093505050505b919050565b60007f01ffc9a7000000000000000000000000000000000000000000000000000000007bffffffffffffffffffffffffffffffffffffffffffffffffffffffff1916827bffffffffffffffffffffffffffffffffffffffffffffffffffffffff1916149050919050565b612759838383612b80565b600073ffffffffffffffffffffffffffffffffffffffff168373ffffffffffffffffffffffffffffffffffffffff160361279b5761279681612b85565b6127da565b8173ffffffffffffffffffffffffffffffffffffffff168373ffffffffffffffffffffffffffffffffffffffff16146127d9576127d88382612bce565b5b5b600073ffffffffffffffffffffffffffffffffffffffff168273ffffffffffffffffffffffffffffffffffffffff160361281c5761281781612d3b565b61285b565b8273ffffffffffffffffffffffffffffffffffffffff168273ffffffffffffffffffffffffffffffffffffffff161461285a576128598282612e0c565b5b5b505050565b505050565b61286f8383612e8b565b61287c60008484846128d4565b80612890575061288f6000848484612a2a565b5b6128cf576040517f08c379a00000000000000000000000000000000000000000000000000000000081526004016128c690614865565b60405180910390fd5b505050565b60006128f58473ffffffffffffffffffffffffffffffffffffffff16613064565b15612a1d578373ffffffffffffffffffffffffffffffffffffffff16636745782b61291e611e2e565b8786866040518563ffffffff1660e01b8152600401612940949392919061496b565b6020604051808303816000875af192505050801561297c57506040513d601f19601f8201168201806040525081019061297991906149cc565b60015b6129cd573d80600081146129ac576040519150601f19603f3d011682016040523d82523d6000602084013e6129b1565b606091505b5060008151036129c5576000915050612a22565b805181602001fd5b636745782b60e01b7bffffffffffffffffffffffffffffffffffffffffffffffffffffffff1916817bffffffffffffffffffffffffffffffffffffffffffffffffffffffff191614915050612a22565b600190505b949350505050565b6000612a4b8473ffffffffffffffffffffffffffffffffffffffff16613064565b15612b73578373ffffffffffffffffffffffffffffffffffffffff1663150b7a02612a74611e2e565b8786866040518563ffffffff1660e01b8152600401612a96949392919061496b565b6020604051808303816000875af1925050508015612ad257506040513d601f19601f82011682018060405250810190612acf91906149cc565b60015b612b23573d8060008114612b02576040519150601f19603f3d011682016040523d82523d6000602084013e612b07565b606091505b506000815103612b1b576000915050612b78565b805181602001fd5b63150b7a0260e01b7bffffffffffffffffffffffffffffffffffffffffffffffffffffffff1916817bffffffffffffffffffffffffffffffffffffffffffffffffffffffff191614915050612b78565b600190505b949350505050565b505050565b6008805490506009600083815260200190815260200160002081905550600881908060018154018082558091505060019003906000526020600020016000909190919091505550565b60006001612bdb846111ab565b612be5919061472d565b9050600060076000848152602001908152602001600020549050818114612cca576000600660008673ffffffffffffffffffffffffffffffffffffffff1673ffffffffffffffffffffffffffffffffffffffff168152602001908152602001600020600084815260200190815260200160002054905080600660008773ffffffffffffffffffffffffffffffffffffffff1673ffffffffffffffffffffffffffffffffffffffff168152602001908152602001600020600084815260200190815260200160002081905550816007600083815260200190815260200160002081905550505b6007600084815260200190815260200160002060009055600660008573ffffffffffffffffffffffffffffffffffffffff1673ffffffffffffffffffffffffffffffffffffffff16815260200190815260200160002060008381526020019081526020016000206000905550505050565b60006001600880549050612d4f919061472d565b9050600060096000848152602001908152602001600020549050600060088381548110612d7f57612d7e613bd1565b5b906000526020600020015490508060088381548110612da157612da0613bd1565b5b906000526020600020018190555081600960008381526020019081526020016000208190555060096000858152602001908152602001600020600090556008805480612df057612def6149f9565b5b6001900381819060005260206000200160009055905550505050565b6000612e17836111ab565b905081600660008573ffffffffffffffffffffffffffffffffffffffff1673ffffffffffffffffffffffffffffffffffffffff168152602001908152602001600020600083815260200190815260200160002081905550806007600084815260200190815260200160002081905550505050565b600073ffffffffffffffffffffffffffffffffffffffff168273ffffffffffffffffffffffffffffffffffffffff1603612efa576040517f08c379a0000000000000000000000000000000000000000000000000000000008152600401612ef190614a74565b60405180910390fd5b612f0381611dc2565b15612f43576040517f08c379a0000000000000000000000000000000000000000000000000000000008152600401612f3a90614ae0565b60405180910390fd5b612f4f6000838361274e565b6001600360008473ffffffffffffffffffffffffffffffffffffffff1673ffffffffffffffffffffffffffffffffffffffff1681526020019081526020016000206000828254612f9f91906141a9565b92505081905550816002600083815260200190815260200160002060006101000a81548173ffffffffffffffffffffffffffffffffffffffff021916908373ffffffffffffffffffffffffffffffffffffffff160217905550808273ffffffffffffffffffffffffffffffffffffffff16600073ffffffffffffffffffffffffffffffffffffffff167fddf252ad1be2c89b69c2b068fc378daa952ba7f163c4a11628f55a4df523b3ef60405160405180910390a461306060008383612860565b5050565b6000808273ffffffffffffffffffffffffffffffffffffffff163b119050919050565b6000604051905090565b600080fd5b600080fd5b60007fffffffff0000000000000000000000000000000000000000000000000000000082169050919050565b6130d08161309b565b81146130db57600080fd5b50565b6000813590506130ed816130c7565b92915050565b60006020828403121561310957613108613091565b5b6000613117848285016130de565b91505092915050565b60008115159050919050565b61313581613120565b82525050565b6000602082019050613150600083018461312c565b92915050565b600081519050919050565b600082825260208201905092915050565b60005b83811015613190578082015181840152602081019050613175565b60008484015250505050565b6000601f19601f8301169050919050565b60006131b882613156565b6131c28185613161565b93506131d2818560208601613172565b6131db8161319c565b840191505092915050565b6000602082019050818103600083015261320081846131ad565b905092915050565b6000819050919050565b61321b81613208565b811461322657600080fd5b50565b60008135905061323881613212565b92915050565b60006020828403121561325457613253613091565b5b600061326284828501613229565b91505092915050565b600073ffffffffffffffffffffffffffffffffffffffff82169050919050565b60006132968261326b565b9050919050565b6132a68161328b565b82525050565b60006020820190506132c1600083018461329d565b92915050565b6132d08161328b565b81146132db57600080fd5b50565b6000813590506132ed816132c7565b92915050565b6000806040838503121561330a57613309613091565b5b6000613318858286016132de565b925050602061332985828601613229565b9150509250929050565b61333c81613208565b82525050565b60006020820190506133576000830184613333565b92915050565b60008060006060848603121561337657613375613091565b5b6000613384868287016132de565b9350506020613395868287016132de565b92505060406133a686828701613229565b9150509250925092565b6000602082840312156133c6576133c5613091565b5b60006133d4848285016132de565b91505092915050565b600081519050919050565b600082825260208201905092915050565b6000819050602082019050919050565b61341281613208565b82525050565b60006134248383613409565b60208301905092915050565b6000602082019050919050565b6000613448826133dd565b61345281856133e8565b935061345d836133f9565b8060005b8381101561348e5781516134758882613418565b975061348083613430565b925050600181019050613461565b5085935050505092915050565b600060208201905081810360008301526134b5818461343d565b905092915050565b600080fd5b600080fd5b7f4e487b7100000000000000000000000000000000000000000000000000000000600052604160045260246000fd5b6134ff8261319c565b810181811067ffffffffffffffff8211171561351e5761351d6134c7565b5b80604052505050565b6000613531613087565b905061353d82826134f6565b919050565b600067ffffffffffffffff82111561355d5761355c6134c7565b5b6135668261319c565b9050602081019050919050565b82818337600083830152505050565b600061359561359084613542565b613527565b9050828152602081018484840111156135b1576135b06134c2565b5b6135bc848285613573565b509392505050565b600082601f8301126135d9576135d86134bd565b5b81356135e9848260208601613582565b91505092915050565b60006020828403121561360857613607613091565b5b600082013567ffffffffffffffff81111561362657613625613096565b5b613632848285016135c4565b91505092915050565b61364481613120565b811461364f57600080fd5b50565b6000813590506136618161363b565b92915050565b6000806040838503121561367e5761367d613091565b5b600061368c858286016132de565b925050602061369d85828601613652565b9150509250929050565b600067ffffffffffffffff8211156136c2576136c16134c7565b5b6136cb8261319c565b9050602081019050919050565b60006136eb6136e6846136a7565b613527565b905082815260208101848484011115613707576137066134c2565b5b613712848285613573565b509392505050565b600082601f83011261372f5761372e6134bd565b5b813561373f8482602086016136d8565b91505092915050565b6000806000806080858703121561376257613761613091565b5b6000613770878288016132de565b9450506020613781878288016132de565b935050604061379287828801613229565b925050606085013567ffffffffffffffff8111156137b3576137b2613096565b5b6137bf8782880161371a565b91505092959194509250565b600080604083850312156137e2576137e1613091565b5b60006137f0858286016132de565b9250506020613801858286016132de565b9150509250929050565b7f4e487b7100000000000000000000000000000000000000000000000000000000600052602260045260246000fd5b6000600282049050600182168061385257607f821691505b6020821081036138655761386461380b565b5b50919050565b7f4b495031373a20617070726f76656420717565727920666f72206e6f6e65786960008201527f7374656e7420746f6b656e000000000000000000000000000000000000000000602082015250565b60006138c7602b83613161565b91506138d28261386b565b604082019050919050565b600060208201905081810360008301526138f6816138ba565b9050919050565b7f4b495031373a20617070726f76616c20746f2063757272656e74206f776e6572600082015250565b6000613933602083613161565b915061393e826138fd565b602082019050919050565b6000602082019050818103600083015261396281613926565b9050919050565b7f4b495031373a20617070726f76652063616c6c6572206973206e6f74206f776e60008201527f6572206e6f7220617070726f76656420666f7220616c6c000000000000000000602082015250565b60006139c5603783613161565b91506139d082613969565b604082019050919050565b600060208201905081810360008301526139f4816139b8565b9050919050565b7f4b495031373a207472616e736665722063616c6c6572206973206e6f74206f7760008201527f6e6572206e6f7220617070726f76656400000000000000000000000000000000602082015250565b6000613a57603083613161565b9150613a62826139fb565b604082019050919050565b60006020820190508181036000830152613a8681613a4a565b9050919050565b7f4b49503137456e756d657261626c653a206f776e657220696e646578206f757460008201527f206f6620626f756e647300000000000000000000000000000000000000000000602082015250565b6000613ae9602a83613161565b9150613af482613a8d565b604082019050919050565b60006020820190508181036000830152613b1881613adc565b9050919050565b7f4f776e61626c653a2063616c6c6572206973206e6f7420746865206f776e6572600082015250565b6000613b55602083613161565b9150613b6082613b1f565b602082019050919050565b60006020820190508181036000830152613b8481613b48565b9050919050565b600081905092915050565b50565b6000613ba6600083613b8b565b9150613bb182613b96565b600082019050919050565b6000613bc782613b99565b9150819050919050565b7f4e487b7100000000000000000000000000000000000000000000000000000000600052603260045260246000fd5b7f4e487b7100000000000000000000000000000000000000000000000000000000600052601160045260246000fd5b6000613c3a82613208565b91507fffffffffffffffffffffffffffffffffffffffffffffffffffffffffffffffff8203613c6c57613c6b613c00565b5b600182019050919050565b7f4b49503137456e756d657261626c653a20676c6f62616c20696e646578206f7560008201527f74206f6620626f756e6473000000000000000000000000000000000000000000602082015250565b6000613cd3602b83613161565b9150613cde82613c77565b604082019050919050565b60006020820190508181036000830152613d0281613cc6565b9050919050565b60008190508160005260206000209050919050565b60006020601f8301049050919050565b600082821b905092915050565b600060088302613d6b7fffffffffffffffffffffffffffffffffffffffffffffffffffffffffffffffff82613d2e565b613d758683613d2e565b95508019841693508086168417925050509392505050565b6000819050919050565b6000613db2613dad613da884613208565b613d8d565b613208565b9050919050565b6000819050919050565b613dcc83613d97565b613de0613dd882613db9565b848454613d3b565b825550505050565b600090565b613df5613de8565b613e00818484613dc3565b505050565b5b81811015613e2457613e19600082613ded565b600181019050613e06565b5050565b601f821115613e6957613e3a81613d09565b613e4384613d1e565b81016020851015613e52578190505b613e66613e5e85613d1e565b830182613e05565b50505b505050565b600082821c905092915050565b6000613e8c60001984600802613e6e565b1980831691505092915050565b6000613ea58383613e7b565b9150826002028217905092915050565b613ebe82613156565b67ffffffffffffffff811115613ed757613ed66134c7565b5b613ee1825461383a565b613eec828285613e28565b600060209050601f831160018114613f1f5760008415613f0d578287015190505b613f178582613e99565b865550613f7f565b601f198416613f2d86613d09565b60005b82811015613f5557848901518255600182019150602085019450602081019050613f30565b86831015613f725784890151613f6e601f891682613e7b565b8355505b6001600288020188555050505b505050505050565b7f4b495031373a206f776e657220717565727920666f72206e6f6e65786973746560008201527f6e7420746f6b656e000000000000000000000000000000000000000000000000602082015250565b6000613fe3602883613161565b9150613fee82613f87565b604082019050919050565b6000602082019050818103600083015261401281613fd6565b9050919050565b7f4b495031373a2061646472657373207a65726f206973206e6f7420612076616c60008201527f6964206f776e6572000000000000000000000000000000000000000000000000602082015250565b6000614075602883613161565b915061408082614019565b604082019050919050565b600060208201905081810360008301526140a481614068565b9050919050565b7f6e65656420746f206d696e74206174206c656173742031204e46540000000000600082015250565b60006140e1601b83613161565b91506140ec826140ab565b602082019050919050565b60006020820190508181036000830152614110816140d4565b9050919050565b7f6d6178206d696e7420616d6f756e74207065722073657373696f6e206578636560008201527f6564656400000000000000000000000000000000000000000000000000000000602082015250565b6000614173602483613161565b915061417e82614117565b604082019050919050565b600060208201905081810360008301526141a281614166565b9050919050565b60006141b482613208565b91506141bf83613208565b92508282019050808211156141d7576141d6613c00565b5b92915050565b7f6d6178204e4654206c696d697420657863656564656400000000000000000000600082015250565b6000614213601683613161565b915061421e826141dd565b602082019050919050565b6000602082019050818103600083015261424281614206565b9050919050565b7f6d6178204e465420706572206164647265737320657863656564656400000000600082015250565b600061427f601c83613161565b915061428a82614249565b602082019050919050565b600060208201905081810360008301526142ae81614272565b9050919050565b60006142c082613208565b91506142cb83613208565b92508282026142d981613208565b915082820484148315176142f0576142ef613c00565b5b5092915050565b7f696e73756666696369656e742066756e64730000000000000000000000000000600082015250565b600061432d601283613161565b9150614338826142f7565b602082019050919050565b6000602082019050818103600083015261435c81614320565b9050919050565b7f4552433732314d657461646174613a2055524920717565727920666f72206e6f60008201527f6e6578697374656e7420746f6b656e0000000000000000000000000000000000602082015250565b60006143bf602f83613161565b91506143ca82614363565b604082019050919050565b600060208201905081810360008301526143ee816143b2565b9050919050565b600081905092915050565b600061440b82613156565b61441581856143f5565b9350614425818560208601613172565b80840191505092915050565b6000815461443e8161383a565b61444881866143f5565b945060018216600081146144635760018114614478576144ab565b60ff19831686528115158202860193506144ab565b61448185613d09565b60005b838110156144a357815481890152600182019150602081019050614484565b838801955050505b50505092915050565b60006144c08286614400565b91506144cc8285614400565b91506144d88284614431565b9150819050949350505050565b7f4f776e61626c653a206e6577206f776e657220697320746865207a65726f206160008201527f6464726573730000000000000000000000000000000000000000000000000000602082015250565b6000614541602683613161565b915061454c826144e5565b604082019050919050565b6000602082019050818103600083015261457081614534565b9050919050565b7f4b495031373a206f70657261746f7220717565727920666f72206e6f6e65786960008201527f7374656e7420746f6b656e000000000000000000000000000000000000000000602082015250565b60006145d3602b83613161565b91506145de82614577565b604082019050919050565b60006020820190508181036000830152614602816145c6565b9050919050565b7f4b495031373a207472616e736665722066726f6d20696e636f7272656374206f60008201527f776e657200000000000000000000000000000000000000000000000000000000602082015250565b6000614665602483613161565b915061467082614609565b604082019050919050565b6000602082019050818103600083015261469481614658565b9050919050565b7f4b495031373a207472616e7366657220746f20746865207a65726f206164647260008201527f6573730000000000000000000000000000000000000000000000000000000000602082015250565b60006146f7602383613161565b91506147028261469b565b604082019050919050565b60006020820190508181036000830152614726816146ea565b9050919050565b600061473882613208565b915061474383613208565b925082820390508181111561475b5761475a613c00565b5b92915050565b7f4b495031373a20617070726f766520746f2063616c6c65720000000000000000600082015250565b6000614797601883613161565b91506147a282614761565b602082019050919050565b600060208201905081810360008301526147c68161478a565b9050919050565b7f4b495031373a207472616e7366657220746f206e6f6e20494b4950313752656360008201527f65697665722f49455243373231526563656976657220696d706c656d656e746560208201527f7200000000000000000000000000000000000000000000000000000000000000604082015250565b600061484f604183613161565b915061485a826147cd565b606082019050919050565b6000602082019050818103600083015261487e81614842565b9050919050565b7f4e487b7100000000000000000000000000000000000000000000000000000000600052601260045260246000fd5b60006148bf82613208565b91506148ca83613208565b9250826148da576148d9614885565b5b828204905092915050565b60006148f082613208565b91506148fb83613208565b92508261490b5761490a614885565b5b828206905092915050565b600081519050919050565b600082825260208201905092915050565b600061493d82614916565b6149478185614921565b9350614957818560208601613172565b6149608161319c565b840191505092915050565b6000608082019050614980600083018761329d565b61498d602083018661329d565b61499a6040830185613333565b81810360608301526149ac8184614932565b905095945050505050565b6000815190506149c6816130c7565b92915050565b6000602082840312156149e2576149e1613091565b5b60006149f0848285016149b7565b91505092915050565b7f4e487b7100000000000000000000000000000000000000000000000000000000600052603160045260246000fd5b7f4b495031373a206d696e7420746f20746865207a65726f206164647265737300600082015250565b6000614a5e601f83613161565b9150614a6982614a28565b602082019050919050565b60006020820190508181036000830152614a8d81614a51565b9050919050565b7f4b495031373a20746f6b656e20616c7265616479206d696e7465640000000000600082015250565b6000614aca601b83613161565b9150614ad582614a94565b602082019050919050565b60006020820190508181036000830152614af981614abd565b905091905056fea2646970667358221220e40e0c6ae89ae8802ff0834da9b50e5fd95757a52e15dd6399a9eb0903a31c4064736f6c63430008110033",
  "linkReferences": {},
  "deployedLinkReferences": {}
}